:020000040800F2
:100000009006002029020008A104000899040008B5
:100010009D040008E30200086D09000800000000CC
:10002000000000000000000000000000E5040008DF
:10003000B503000800000000A3040008D50500086F
:10004000430200084302000843020008430200087C
:10005000430200084302000843020008430200086C
:10006000430200084302000843020008430200085C
:10007000430200084302000843020008430200084C
:1000800043020008E9020008430200084302000896
:10009000430200084302000843020008430200082C
:1000A000430200084302000843020008430200081C
:1000B0004302000841060008B10600084302000898
:1000C00043020008430200084302000843020008FC
:1000D0004302000843020008D50800084302000854
:1000E00043020008430200084302000843020008DC
:1000F00043020008430200084302000843020008CC
:1001000043020008430200084302000843020008BB
:1001100043020008430200084302000843020008AB
:10012000430200084302000843020008430200089B
:10013000430200084302000843020008430200088B
:10014000430200084302000843020008430200087B
:10015000430200084302000843020008430200086B
:10016000430200084302000843020008430200085B
:10017000430200084302000843020008430200084B
:10018000430200084302000800F002F800F03CF8C7
:100190000AA090E8000C82448344AAF10107DA45E2
:1001A00001D100F031F8AFF2090EBAE80F0013F0F8
:1001B000010F18BFFB1A43F0010318470413000096
:1001C00024130000103A24BF78C878C1FAD8520727
:1001D00024BF30C830C144BF04680C6070470000C1
:1001E0000023002400250026103A28BF78C1FBD840
:1001F000520728BF30C148BF0B6070471FB501F0E0
:1002000054F91FBD10B510BD00F031F81146FFF7CD
:10021000F5FF00F09BFC00F04FF803B4FFF7F2FF8E
:1002200003BC00F057F80000094880470948004720
:10023000FEE7FEE7FEE7FEE7FEE7FEE7FEE7FEE796
:10024000FEE7FEE704480549054A064B70470000F3
:10025000D9050008890100089000002090060020C0
:10026000900200209002002070477047704775464A
:1002700000F02CF8AE4605006946534620F0070012
:10028000854618B020B5FFF7DDFFBDE820404FF0F0
:1002900000064FF000074FF000084FF0000B21F070
:1002A0000701AC46ACE8C009ACE8C009ACE8C0093D
:1002B000ACE8C0098D46704710B50446AFF3008026
:1002C0002046BDE81040FFF7A8BF00000048704777
:1002D0002C00002001491820ABBEFEE726000200DA
:1002E000704700BFFEE7000010B50949094800F05B
:1002F0002FF840B14FF40051074800F0C9F84FF40F
:100300007A7000F059F80249024800F007F810BD71
:1003100000802020A0600240000C02400246094BF1
:100320009A4201D2084801E00648103801F0005313
:100330001BB1064B0B40C36002E0044B0B408360D3
:100340007047000010640240006002407D0F7D0F86
:1003500070B50246002000240025124EB24201D2A0
:10036000114B01E00F4B103B104E0E4036B11E26D4
:1003700006EAD124166806EA040502E0566906F08A
:10038000800501F000560EB15C6800E01C68084E64
:10039000344004EA010616B10DB1012000E000204E
:1003A00070BD000010640240006002403C0F3C0F32
:1003B0007D0F7D0F7047000010B504460CE0002152
:1003C000074800F042FA00BF054800F02AFAB0F5ED
:1003D0007A7FF9D3601E84B2002CF0D110BD0000EA
:1003E00000100040F0B50A4600210023002400BFA1
:1003F0003DE0012505FA01F3156805EA03049C4276
:1004000034D105684F000326BE40B5430560157919
:100410004E00B5400668354305601579012D02D0C0
:100420001579022D16D185684F000326BE40B543CD
:10043000856055794E00B5408668354385604568CE
:1004400001268E40B5434560456896798E40B6B228
:1004500035434560C5684F000326BE40B543C560BF
:10046000D5794E00B540C6683543C560491C102992
:10047000BFD3F0BD0246002013690B400BB1012031
:1004800000E0002070470A04826170478161704774
:1004900042694A404261704700BFFEE700BFFEE785
:1004A0007047704729B1064A12680243044B1A602C
:1004B00004E0034A12688243014B1A60704700004F
:1004C0003038024029B1064A12680243044B1A60D0
:1004D00004E0034A12688243014B1A60704700002F
:1004E00040380240704700000CB500200190009099
:1004F0003448006840F480303249086000BF314819
:10050000006800F4003000900198401C01900098B1
:1005100018B90198B0F5A04FF1D12A48006800F44D
:10052000003010B10120009001E000200090009800
:10053000012846D123484030006840F080502149CE
:10054000403108602048006840F440401E4908607F
:100550001C48083000681B490831086008460068DC
:1005600040F4004008600846006840F4A05008606D
:100570001648091F0860081F006840F08070091FB6
:10058000086000BF0F48006800F000700028F9D034
:1005900040F205700E4908600A480830006820F0F3
:1005A00003000849083108600846006840F002006E
:1005B000086000BF03480830006800F00C000828FD
:1005C000F8D10CBD003802400070004008544007CC
:1005D000003C02407047000010B51548006840F428
:1005E0007000134908601348006840F00100114989
:1005F000086000200F49083108600E4800680E4965
:1006000008400C4908600D48091D0860081F006873
:1006100020F48020091F0860002006490C31086082
:10062000FFF762FF4FF0006001498039086010BD9C
:1006300088ED00E000380240FFFFF6FE1030002495
:1006400010B50221154800F0EFF8012824D102214D
:10065000124800F0D7F812480068401C10490860A2
:1006600008460068B0F5A77F06DD002008600D4849
:100670000068401C0B49086080210B48FFF7FAFE18
:1006800018B100200949087002E0012007490870EC
:100690000221024800F0B6F810BD0000000400403E
:1006A0001000002014000020000802401C00002060
:1006B00010B52DED0C8B0121384800F0B5F801285C
:1006C00068D13748006800F07FFC41EC1D0B9FEDBE
:1006D000350B53EC102B00F08FFC41EC1C0B9FED05
:1006E000330B53EC102B00F017FB41EC1A0B314885
:1006F000006800F069FC41EC1B0B53EC1A2B00F076
:1007000063FA41EC190B9FED2C0B53EC102B00F00E
:1007100073FC41EC180B00F025FA00EE100A284893
:1007200080ED000A1E48006800F04EFC41EC1C0BF6
:100730009FED1E0B53EC102B00F0EEFA41EC190B61
:100740001C48006800EE100AB8EEC00A10EE100A4D
:1007500000F03AFE41EC180B53EC192B00F034FA80
:1007600041EC1A0B9FED170B53EC102B00F044FCDF
:1007700041EC1B0B00F0F6F900EE100A134880ED77
:10078000000A00200B490860054908600121034860
:1007900000F038F8BDEC0C8B10BD000000080040E4
:1007A00010000020000000000000F03F00000000EA
:1007B00000E0744014000020000000000070B7400A
:1007C0002800002000000000008076401800002073
:1007D0000EB501211020FFF775FE0020ADF80200D4
:1007E0004FF6FF7001905320ADF8000069460448B1
:1007F00000F02EF80121024800F007F80EBD0000BD
:1008000000100040CA430282704721B1028842F0C2
:100810000102028004E002884FF6FE731A40028053
:1008200070470146486A704730B5024600200023F1
:100830000024158A05EA0103958905EA010413B12C
:100840000CB1012000E0002030BD41627047000083
:1008500000220288184B98420ED0184B98420BD0B9
:10086000B0F1804F08D0164B984205D0154B9842F6
:1008700002D0154B984204D14FF68F731A404B8823
:100880001A43124B984207D0114B984204D04FF6AE
:10089000FF431A400B891A4302804B68C3620B88DE
:1008A0000385054B984202D0044B984201D18B7AC4
:1008B0000386012383827047000001400004014049
:1008C0000004004000080040000C00400010004000
:1008D0000014004010B540F22551064800F01BF806
:1008E00008B100F042F840F22551024800F004F847
:1008F00010BD00000044004010B50022002340F667
:100900006A14A14200D100BF0A1201249440A3B28C
:10091000DC43048010BD70B502460024002300258E
:10092000002040F66A16B14200D100BFC1F3421563
:1009300001F01F03012606FA03F3012D02D1968967
:10094000334006E0022D02D1168A334001E0968A38
:1009500033400C12012606FA04F41688344013B111
:100960000CB1012000E0002070BD704700BFFEE721
:100970002DE9F04705462C464FF47A70B4FBF0F0B1
:10098000C6B24FF47A70B4FBF0F100FB114464205E
:10099000B4FBF0F0C7B26420B4FBF0F100FB1144EB
:1009A0000A20B4FBF0F000F0FF080A20B4FBF0F1DD
:1009B00000FB114904212548FFF765FD012000F0E7
:1009C00049F82349885D00F045F804211F48FFF7E6
:1009D0005DFD0520FFF7F0FC04211C48FFF753FDE7
:1009E000022000F037F81A49C85D00F033F80421FE
:1009F0001648FFF74BFD0520FFF7DEFC04211348E6
:100A0000FFF741FD042000F025F8114911F8080016
:100A100000F020F804210D48FFF738FD0520FFF70E
:100A2000CBFC04210948FFF72EFD082000F012F846
:100A3000074911F8090000F00DF804210348FFF7F9
:100A400025FD0520FFF7B8FCBDE8F0870004024053
:100A50000000002070B5054607241AE00120A040E0
:100A6000284028B14FF400410F48FFF70FFD04E084
:100A70004FF400410C48FFF706FD4FF400510B48BE
:100A8000FFF704FD4FF400510848FFF7FCFC601E1F
:100A900044B2002CE2DA04210448FFF7F7FC0421F9
:100AA0000248FFF7F0FC70BD000C02400004024059
:100AB0001CB501210420FFF7F5FC01210820FFF7F8
:100AC000F1FC4FF42040009001208DF8040000203C
:100AD0008DF8060003208DF8050000208DF8070032
:100AE00069460B48FFF77EFC0420009001208DF83A
:100AF000040000208DF8060003208DF8050000207A
:100B00008DF8070069460248FFF76CFC1CBD000029
:100B1000000402401CB501210220FFF7C3FC4FF482
:100B20005060009001208DF8040000208DF8060030
:100B300003208DF8050000208DF807006946024863
:100B4000FFF750FC1CBD000000040240FFF740FE10
:100B5000FFF7AEFFFFF7DEFF02E01E20FFF708FF02
:100B6000FBE7000021F00042A2F16052B2F5801FC5
:100B700001F0004328BFD2F17F6C0BD95FEA001C63
:100B800043EAC20242EB507018BF704728BF20F002
:100B900001007047B2F5801FBCBF184670474FEA8E
:100BA000410C1CF5001F02D2084600F083BC70B552
:100BB00000F0CCFA00000089FFF7F6BF4FF00040CC
:100BC000A0F580007047000010B591EA030F48BF00
:100BD00083F0004300F11683841A71EB030C05D2F5
:100BE000121943EB0C03001B61EB0C01DFF824E14D
:100BF0004FEA1154A4EB135C1EEA430F18BF9EEAA0
:100C0000445F73D023EA0E03DCF1200E21EA045185
:100C100043F4801332D322FA0CFE10EB0E0023FAB9
:100C20000CFE41EB0E01CCF1200E03FA0EFE10EB90
:100C30000E0051F10001B1F5801FCCF1200E32D22F
:100C400001EB045112FA0EF2BDE8104058BF704794
:100C5000401C38BF5FEA420218BF7047002814BF2B
:100C600020F0010041F100014FEA410313F5001F9C
:100C700038BF7047A1F1C04100F0B6BA012A43EB7A
:100C80000302ACF1200CDCF11F0E32BF4FF0000E5E
:100C900023FA0CF310EB030041EB0451B4EB115FAA
:100CA000D0D0A1EB045101F5801149085FEA300072
:100CB00001EB04510ED350F1000038BF12FA0EFEC2
:100CC00008D1BDE81040C9E7401C38BF5FEA4202C6
:100CD000CAD1C3E7BDE810404FEA410313F5001F36
:100CE00038BF7047A1F1C04100F07EBA9EEA445F70
:100CF00008D011EA5E0FBDE8104004BF01F00041CA
:100D000000207047BDE8104070B500F01FFA00BF2A
:100D100064FBBE3E0000E0FF2DE9C04130B4DFF8C7
:100D2000A0C23CEA111418BF3CEA131400F0EC8096
:100D300081EA03051CEA111444EAD57418BF1CEAC1
:100D4000131500F0C780A4EB05044FF0004545EAF9
:100D5000C12145EAC32341EA505143EA525304F109
:100D60007F74994204F500344FEAC0204FEAC22252
:100D700008BF904200F09C804FEA13650FF24016C6
:100D8000765D4FEA134506FB05F7C7F1807706FB52
:100D900007F74FEAD737A7FB03687642C8F58038D4
:100DA000A7FB06CE38BFA8F1010807FB08E64FF005
:100DB000000EA6FB028CE6FB03CEDCF1000CCEF1AC
:100DC000004E38BFAEF1010EA6FB0C584FF00007E5
:100DD0004FF00005E6FB0E87A1FB08C6A0FB07CE7F
:100DE00016EB0E0645F10005E1FB076515F1E04E37
:100DF0007EBFA4F580345FEA46066D4116F1800798
:100E000045F100054FEA17274FEA066647EA0567EE
:100E1000A6F1DE46B6F1805F4FEA15251FD93846A8
:100E200024F0010C05EBC471BCF1FE6F01EB0C1159
:100E300002D8F0BCBDE8008124425CBF01F5801EF1
:100E40009EEAC47F02D4F0BCBDE80081244238D4BD
:100E5000F0BCA1F1C041BDE8004100F0C5B94FEAC6
:100E6000D22242EA43524FEAD323A7FB02864FEA3B
:100E7000D02040EA415007FB03661EEA0E0F4FEAFE
:100E8000D12105FB026658BFA6EB0056B6EB005613
:100E90004FEA520E4EEAC37E18EB0E0E56EB530E7F
:100EA000BDD518EB02085E417F1C55F10005B6E781
:100EB0004FF480154FF000074FF000064FF0000888
:100EC000ADE7F0BC4FF0000001F1C04101F000417E
:100ED000BDE8008111EA0C1F0CEA131500D00CE0EC
:100EE00013EA0C1F00F025804FF00000F0BC81EAEF
:100EF000030101F00041BDE80081F0BCBDE8004104
:100F000081EA030100F070B9F0BCBDE8004170B5A2
:100F100000F01CF9097EFC3E00F007B881EA0301ED
:100F20004FF0000001F00041704781EA030100F03A
:100F30005BB9F0BCBDE800414FF0000021497047AB
:100F4000FFFDFBF9F7F5F4F2F0EEEDEBE9E8E6E48E
:100F5000E3E1E0DEDDDBDAD8D7D5D4D3D1D0CFCD15
:100F6000CCCBCAC8C7C6C5C4C2C1C0BFBEBDBCBB4E
:100F7000BAB9B8B7B6B5B4B3B2B1B0AFAEADACAB49
:100F8000AAA9A8A8A7A6A5A4A3A3A2A1A09F9F9E23
:100F90009D9C9C9B9A9999989797969595949393D5
:100FA000929191908F8F8E8E8D8C8C8B8B8A89896C
:100FB00088888787868585848483838282818180EF
:100FC0000000FF070000F87F10F0004248BF4042D9
:100FD000B0FA80F310FA03F10AD0C3F11D0303F550
:100FE00080634FEA415002EB035202EBD12170477C
:100FF0004FF0000070470000DFF848C170B51CEAF0
:10100000111E1EBF1CEA13159EEA0C0F95EA0C0F69
:1010100000F06F8081EA030423EA4C134EEAD47E89
:1010200021EA4C1141F4801143F48013AE44A1FB3A
:10103000024CA0FB0365AEF17F7E361955EB0C0523
:10104000A1FB034C4CF10003A0FB021C16EB0C06A9
:10105000654153F10003094218BF46F0010613F43D
:10106000007F0BD14FEA03314FEA0530340341EAE8
:10107000155140EA16506FF003020AE04FEAC3210F
:101080004FEAC520F40241EA555140EA56506FF04C
:10109000020202EB2E4201EB025585EACE710AD024
:1010A0005FEA440C18BF24F0004450F1000041F105
:1010B000000120EAD47040F2FE7C624500D270BD8F
:1010C000A84214BF4FF080444FF04044002E08BFA8
:1010D0000024BEF1806FA8BFA1F1C041BDE87040FF
:1010E00080F282804FF0000001F1C04101F0004128
:1010F00070479EEA0C0F0CEA131518BF95EA0C0F07
:1011000006D04FF0000081EA030E0EF0004170BDE2
:1011100000F01CF88900013E00F007B800F009B8A3
:101120004FEA430C5FEA5C5C08D081EA030100F0FF
:101130005BB84FEA410C5FEA5C5CF6D14FF000000F
:10114000014970470000FF070000F87F0EF1020E12
:101150002EF0030E5EF8046B364205D4012A43EBF1
:10116000030515F5001F12D8012841EB010C1CF5F1
:10117000001F0CD80ED14FEAD17C15F5001F0CEBE7
:101180004C0C0CF1020C08BF4CEBD37C04E04FF08C
:10119000080C01E04FEAD37C0CEB4C0526FA05F66F
:1011A00006F00706B6F1040C06D20EEB860CBDE87D
:1011B00070404CF0010C6047DFE80CF0090B0202B4
:1011C0004FF000414FF00000A1F5002170BD19461D
:1011D0001046012851EB010418BFD4F5001484BF58
:1011E000002001F0004170BD0808A0F500114FEA91
:1011F0003101704710B591EA030F48BF83F00043F7
:101200003FF5EAAC841A71EB030C07D212198CF08B
:10121000004C43EB0C03001B61EB0C01DFF8A4E175
:101220004FEA1154A4EB135C1EEA430F18BF9EEA69
:10123000445F00F0B08023EA6E03524221EA045179
:10124000C3EB6E0338BF5B1EDCF1200E25D322FA00
:101250000CFE10EB0E0043FA0CFE41EB0E01CCF13C
:10126000200E03FA0EFE10EB0E0051F10001CCF13E
:10127000200E29D412FA0EF201EB0451BDE8104001
:1012800058BF7047401C1CBFB2F1004F7047002888
:101290000CBF491C20F00100704712EB020E43EB1B
:1012A000030218BF4FF0010E4EEA4202ACF1200CCF
:1012B000DCF11E0E54D943FA0CFE10EB0E0051F176
:1012C000FF31CCF11E0ED5D50EF1010E12FA0EFE35
:1012D000404141EB010101EB445C5FEA5C5C10D9E9
:1012E00010EBDE7001EB045138BFBEF1004FBDE8DA
:1012F000104018BF704700280CBF491C20F00100A7
:10130000704730D24FEAD42C11F5001124F4006458
:101310001BD0B1FA81F20B3AA41AA41ED2F1200319
:10132000914030FA03F31943904001EBCC71002C4B
:1013300001EB0451BDE81040A8BF704701F1C04166
:101340004FF0000001F000417047B0FA80F310FA4E
:1013500003F100D110BDE41A173C4805C90AE4E7BF
:1013600001EB045110BD491001EB0451BDE81040E0
:101370004FEA300002E04FF0000170474A0008BF1A
:101380000042F8D0B2F5001F28BF704701F00041BD
:101390004FF0000070479EEA445F07D011EA5E0FED
:1013A000BDE8104004BF002100207047BDE8104098
:1013B00070B5FFF7CBFE00BF40DFF63E83F0004183
:1013C000104670470000E0FF43004FEAD30C4FEA9D
:1013D0003C0C43401FBF40070CF1605113F0FE4F1F
:1013E00070471CF0006F03D100200CF000417047E3
:1013F0000CF0004343EA507010B540EACC0000F016
:101400000EF800BF000000924FEA0001FFF7ECBEAB
:101410004FF000414FF00000A1F5002170470EF1A0
:10142000020E2EF0030E5EF8044B244204D44FEA61
:101430004102B2F17F4F11D84FEA4003B3F17F4F21
:101440000CD80ED14FEAD07CB2F17F4F0CEB4C0C94
:101450000CF1020C08BF4CEBD17C04E04FF0080CFF
:1014600001E04FEAD17C0CEB4C0324FA03F404F0C6
:101470000704B4F1040C06D20EEB840CBDE8104056
:101480004CF0010C6047DFE80CF0070802024FF057
:101490000040A0F5800010BD0846420018BFD2F100
:1014A000807288BF00F0004010BD4FF04070E1EE48
:1014B000100A7047FF2141EAD050C0057047000074
:1014C000E0140008000000202C000000C401000807
:1014D0000C1500082C00002064060000E001000844
:1014E000C0F9A4B0999282F880900000000000003A
:1014F00000000000000000000000000000000000EC
:0C150000000000000000000000000000DF
:040000050800018965
:00000001FF
